:100000000C942A000C9447000C9447000C94470071
:100010000C9447000C9447000C9447000C94470044
:100020000C9447000C9447000C9447000C94470034
:100030000C9447000C9447000C9447000C94470024
:100040000C9447000C9447000C9447000C94470014
:100050000C94470011241FBECFE5D4E0DEBFCDBF16
:1000600010E0A0E6B0E0ECE4F1E002C005900D92F3
:10007000A036B107D9F710E0A0E6B0E001C01D92AC
:10008000A036B107E1F70E9449000C94A4000C943B
:1000900000001F938FEF84BB13E3B8E1AEE829E1C2
:1000A00030E076E069E05AE045E019B910BCBAB931
:1000B000A0BD5F9BFECF8CB1863449F445BB80E187
:1000C00097E2F9013197F1F70197D9F7EECF823432
:1000D00049F455BB80E197E2F9013197F1F70197B7
:1000E000D9F7E3CF8C3449F465BB80E197E2F9019D
:1000F0003197F1F70197D9F7D8CF823549F475BB1D
:1001000080E197E2F9013197F1F70197D9F7CDCF67
:10011000833509F0CACF15BA80E197E2F90131972A
:10012000F1F70197D9F7C1CF83E389B910BC88E112
:100130008AB98EE880BD08955D9BFECF8CB9089585
:0C0140005F9BFECF8CB10895F894FFCFB8
:00000001FF
